{
  "contractName": "Vshare",
  "abi": [
    {
      "inputs": [],
      "stateMutability": "nonpayable",
      "type": "constructor"
    },
    {
      "anonymous": false,
      "inputs": [
        {
          "indexed": false,
          "internalType": "address",
          "name": "from",
          "type": "address"
        },
        {
          "indexed": false,
          "internalType": "address",
          "name": "to",
          "type": "address"
        },
        {
          "indexed": false,
          "internalType": "uint256",
          "name": "asset_type",
          "type": "uint256"
        }
      ],
      "name": "assetShared",
      "type": "event"
    },
    {
      "inputs": [],
      "name": "GetRequestCount",
      "outputs": [
        {
          "internalType": "uint256",
          "name": "",
          "type": "uint256"
        }
      ],
      "stateMutability": "view",
      "type": "function",
      "constant": true
    },
    {
      "inputs": [],
      "name": "GetAssetCount",
      "outputs": [
        {
          "internalType": "uint256",
          "name": "",
          "type": "uint256"
        }
      ],
      "stateMutability": "view",
      "type": "function",
      "constant": true
    },
    {
      "inputs": [],
      "name": "GetUserId",
      "outputs": [
        {
          "internalType": "uint256",
          "name": "",
          "type": "uint256"
        }
      ],
      "stateMutability": "view",
      "type": "function",
      "constant": true
    },
    {
      "inputs": [],
      "name": "RegisterUser",
      "outputs": [],
      "stateMutability": "nonpayable",
      "type": "function"
    },
    {
      "inputs": [],
      "name": "ListRequests",
      "outputs": [
        {
          "components": [
            {
              "internalType": "address",
              "name": "Requester",
              "type": "address"
            },
            {
              "internalType": "uint256",
              "name": "RequestedDataType",
              "type": "uint256"
            }
          ],
          "internalType": "struct Request[]",
          "name": "",
          "type": "tuple[]"
        }
      ],
      "stateMutability": "view",
      "type": "function",
      "constant": true
    },
    {
      "inputs": [
        {
          "internalType": "string",
          "name": "hash",
          "type": "string"
        },
        {
          "internalType": "uint256",
          "name": "Atype",
          "type": "uint256"
        }
      ],
      "name": "AddAsset",
      "outputs": [],
      "stateMutability": "nonpayable",
      "type": "function"
    },
    {
      "inputs": [
        {
          "internalType": "uint256",
          "name": "userId",
          "type": "uint256"
        },
        {
          "internalType": "uint256",
          "name": "asset_type",
          "type": "uint256"
        }
      ],
      "name": "RequestAsset",
      "outputs": [],
      "stateMutability": "nonpayable",
      "type": "function"
    },
    {
      "inputs": [
        {
          "internalType": "uint256",
          "name": "assetid",
          "type": "uint256"
        },
        {
          "internalType": "uint256",
          "name": "userId",
          "type": "uint256"
        }
      ],
      "name": "AllowAccess",
      "outputs": [],
      "stateMutability": "nonpayable",
      "type": "function"
    },
    {
      "inputs": [],
      "name": "ListAssets",
      "outputs": [
        {
          "components": [
            {
              "internalType": "uint256",
              "name": "Atype",
              "type": "uint256"
            },
            {
              "internalType": "uint256",
              "name": "asset_id",
              "type": "uint256"
            },
            {
              "internalType": "string",
              "name": "hash",
              "type": "string"
            },
            {
              "internalType": "uint256",
              "name": "userId",
              "type": "uint256"
            }
          ],
          "internalType": "struct Asset[]",
          "name": "",
          "type": "tuple[]"
        }
      ],
      "stateMutability": "view",
      "type": "function",
      "constant": true
    },
    {
      "inputs": [
        {
          "internalType": "uint256",
          "name": "ownerid",
          "type": "uint256"
        },
        {
          "internalType": "uint256",
          "name": "asset_id",
          "type": "uint256"
        }
      ],
      "name": "ReadAsset",
      "outputs": [
        {
          "components": [
            {
              "internalType": "uint256",
              "name": "Atype",
              "type": "uint256"
            },
            {
              "internalType": "uint256",
              "name": "asset_id",
              "type": "uint256"
            },
            {
              "internalType": "string",
              "name": "hash",
              "type": "string"
            },
            {
              "internalType": "uint256",
              "name": "userId",
              "type": "uint256"
            }
          ],
          "internalType": "struct Asset",
          "name": "h",
          "type": "tuple"
        }
      ],
      "stateMutability": "view",
      "type": "function",
      "constant": true
    }
  ],
  "bytecode": "0x608060405234801561001057600080fd5b50600160008190555060006001819055506000600281905550612468806100386000396000f3fe608060405234801561001057600080fd5b506004361061009e5760003560e01c8063aeea7de511610066578063aeea7de514610121578063e1f601ab14610151578063ee3b7c3c1461016f578063f36f26a11461018d578063fafdf27e146101ab5761009e565b8063189e92ae146100a35780632e35ba37146100ad5780633225cb5d146100cb5780633bb5df31146100e95780639c5c633d14610105575b600080fd5b6100ab6101c7565b005b6100b56102fb565b6040516100c29190611818565b60405180910390f35b6100d36103c4565b6040516100e09190611818565b60405180910390f35b61010360048036038101906100fe91906119b9565b61048d565b005b61011f600480360381019061011a9190611a15565b6106d7565b005b61013b60048036038101906101369190611a15565b610c4d565b6040516101489190611b4f565b60405180910390f35b610159610f1d565b6040516101669190611818565b60405180910390f35b610177610fe6565b6040516101849190611c96565b60405180910390f35b6101956111bb565b6040516101a29190611dd7565b60405180910390f35b6101c560048036038101906101c09190611a15565b611359565b005b6000600460003373ffffffffffffffffffffffffffffffffffffffff1673ffffffffffffffffffffffffffffffffffffffff1681526020019081526020016000205414610249576040517f08c379a000000000000000000000000000000000000000000000000000000000815260040161024090611e56565b60405180910390fd5b33600360008054815260200190815260200160002060006101000a81548173ffffffffffffffffffffffffffffffffffffffff021916908373ffffffffffffffffffffffffffffffffffffffff160217905550600054600460003373ffffffffffffffffffffffffffffffffffffffff1673ffffffffffffffffffffffffffffffffffffffff168152602001908152602001600020819055506000808154809291906102f490611ea5565b9190505550565b600080600460003373ffffffffffffffffffffffffffffffffffffffff1673ffffffffffffffffffffffffffffffffffffffff16815260200190815260200160002054141561037f576040517f08c379a000000000000000000000000000000000000000000000000000000000815260040161037690611f3a565b60405180910390fd5b600760003373ffffffffffffffffffffffffffffffffffffffff1673ffffffffffffffffffffffffffffffffffffffff16815260200190815260200160002054905090565b600080600460003373ffffffffffffffffffffffffffffffffffffffff1673ffffffffffffffffffffffffffffffffffffffff168152602001908152602001600020541415610448576040517f08c379a000000000000000000000000000000000000000000000000000000000815260040161043f90611f3a565b60405180910390fd5b600460003373ffffffffffffffffffffffffffffffffffffffff1673ffffffffffffffffffffffffffffffffffffffff16815260200190815260200160002054905090565b610495611704565b600860003373ffffffffffffffffffffffffffffffffffffffff1673ffffffffffffffffffffffffffffffffffffffff16815260200190815260200160002054816020018181525050828160400181905250600460003373ffffffffffffffffffffffffffffffffffffffff1673ffffffffffffffffffffffffffffffffffffffff16815260200190815260200160002054816060018181525050818160000181815250506000600460003373ffffffffffffffffffffffffffffffffffffffff1673ffffffffffffffffffffffffffffffffffffffff1681526020019081526020016000205414156105bd576040517f08c379a00000000000000000000000000000000000000000000000000000000081526004016105b490611fa6565b60405180910390fd5b600560003373ffffffffffffffffffffffffffffffffffffffff1673ffffffffffffffffffffffffffffffffffffffff1681526020019081526020016000208190806001815401808255809150506001900390600052602060002090600402016000909190919091506000820151816000015560208201518160010155604082015181600201908051906020019061065692919061172c565b506060820151816003015550506001600860003373ffffffffffffffffffffffffffffffffffffffff1673ffffffffffffffffffffffffffffffffffffffff16815260200190815260200160002060008282546106b39190611fc6565b92505081905550600160008154809291906106cd90611ea5565b9190505550505050565b600081141580156106e9575060005481105b610728576040517f08c379a000000000000000000000000000000000000000000000000000000000815260040161071f90612068565b60405180910390fd5b600073ffffffffffffffffffffffffffffffffffffffff166003600083815260200190815260200160002060009054906101000a900473ffffffffffffffffffffffffffffffffffffffff1673ffffffffffffffffffffffffffffffffffffffff1614156107cb576040517f08c379a00000000000000000000000000000000000000000000000000000000081526004016107c2906120fa565b60405180910390fd5b6000600460003373ffffffffffffffffffffffffffffffffffffffff1673ffffffffffffffffffffffffffffffffffffffff16815260200190815260200160002054141561084e576040517f08c379a000000000000000000000000000000000000000000000000000000000815260040161084590611f3a565b60405180910390fd5b600460003373ffffffffffffffffffffffffffffffffffffffff1673ffffffffffffffffffffffffffffffffffffffff168152602001908152602001600020548114156108d0576040517f08c379a00000000000000000000000000000000000000000000000000000000081526004016108c790612166565b60405180910390fd5b60006003600083815260200190815260200160002060009054906101000a900473ffffffffffffffffffffffffffffffffffffffff1690506000600560003373ffffffffffffffffffffffffffffffffffffffff1673ffffffffffffffffffffffffffffffffffffffff168152602001908152602001600020805480602002602001604051908101604052809291908181526020016000905b82821015610a4b578382906000526020600020906004020160405180608001604052908160008201548152602001600182015481526020016002820180546109b0906121b5565b80601f01602080910402602001604051908101604052809291908181526020018280546109dc906121b5565b8015610a295780601f106109fe57610100808354040283529160200191610a29565b820191906000526020600020905b815481529060010190602001808311610a0c57829003601f168201915b5050505050815260200160038201548152505081526020019060010190610969565b505050509050600081511415610a96576040517f08c379a0000000000000000000000000000000000000000000000000000000008152600401610a8d90612233565b60405180910390fd5b60005b8151811015610c465784828281518110610ab657610ab5612253565b5b6020026020010151602001511415610c3357600560008473ffffffffffffffffffffffffffffffffffffffff1673ffffffffffffffffffffffffffffffffffffffff168152602001908152602001600020828281518110610b1a57610b19612253565b5b6020026020010151908060018154018082558091505060019003906000526020600020906004020160009091909190915060008201518160000155602082015181600101556040820151816002019080519060200190610b7b92919061172c565b5060608201518160030155505060026000815480929190610b9b90611ea5565b91905055506001600860008573ffffffffffffffffffffffffffffffffffffffff1673ffffffffffffffffffffffffffffffffffffffff1681526020019081526020016000206000828254610bf09190611fc6565b925050819055507f52eea26d7a439602793b50acf1c45591724e733b5e7d6bc3c1d5bd29bfb240c2338487604051610c2a93929190612291565b60405180910390a15b8080610c3e90611ea5565b915050610a99565b5050505050565b610c55611704565b6000600460003373ffffffffffffffffffffffffffffffffffffffff1673ffffffffffffffffffffffffffffffffffffffff168152602001908152602001600020541415610cd8576040517f08c379a0000000000000000000000000000000000000000000000000000000008152600401610ccf90611f3a565b60405180910390fd5b60008314158015610ceb57506000548311155b610cf457600080fd5b6000600560003373ffffffffffffffffffffffffffffffffffffffff1673ffffffffffffffffffffffffffffffffffffffff168152602001908152602001600020805480602002602001604051908101604052809291908181526020016000905b82821015610e3757838290600052602060002090600402016040518060800160405290816000820154815260200160018201548152602001600282018054610d9c906121b5565b80601f0160208091040260200160405190810160405280929190818152602001828054610dc8906121b5565b8015610e155780601f10610dea57610100808354040283529160200191610e15565b820191906000526020600020905b815481529060010190602001808311610df857829003601f168201915b5050505050815260200160038201548152505081526020019060010190610d55565b505050509050600081511415610e82576040517f08c379a0000000000000000000000000000000000000000000000000000000008152600401610e7990612314565b60405180910390fd5b60005b8151811015610f145784828281518110610ea257610ea1612253565b5b602002602001015160600151148015610ed8575083828281518110610eca57610ec9612253565b5b602002602001015160200151145b15610f0157818181518110610ef057610eef612253565b5b602002602001015192505050610f17565b8080610f0c90611ea5565b915050610e85565b50505b92915050565b600080600460003373ffffffffffffffffffffffffffffffffffffffff1673ffffffffffffffffffffffffffffffffffffffff168152602001908152602001600020541415610fa1576040517f08c379a0000000000000000000000000000000000000000000000000000000008152600401610f9890611f3a565b60405180910390fd5b600860003373ffffffffffffffffffffffffffffffffffffffff1673ffffffffffffffffffffffffffffffffffffffff16815260200190815260200160002054905090565b60606000600460003373ffffffffffffffffffffffffffffffffffffffff1673ffffffffffffffffffffffffffffffffffffffff16815260200190815260200160002054141561106b576040517f08c379a000000000000000000000000000000000000000000000000000000000815260040161106290611f3a565b60405180910390fd5b6000600560003373ffffffffffffffffffffffffffffffffffffffff1673ffffffffffffffffffffffffffffffffffffffff168152602001908152602001600020805480602002602001604051908101604052809291908181526020016000905b828210156111ae57838290600052602060002090600402016040518060800160405290816000820154815260200160018201548152602001600282018054611113906121b5565b80601f016020809104026020016040519081016040528092919081815260200182805461113f906121b5565b801561118c5780601f106111615761010080835404028352916020019161118c565b820191906000526020600020905b81548152906001019060200180831161116f57829003601f168201915b50505050508152602001600382015481525050815260200190600101906110cc565b5050505090508091505090565b60606000600460003373ffffffffffffffffffffffffffffffffffffffff1673ffffffffffffffffffffffffffffffffffffffff168152602001908152602001600020541415611240576040517f08c379a000000000000000000000000000000000000000000000000000000000815260040161123790611fa6565b60405180910390fd5b6000600460003373ffffffffffffffffffffffffffffffffffffffff1673ffffffffffffffffffffffffffffffffffffffff168152602001908152602001600020549050600060066000838152602001908152602001600020805480602002602001604051908101604052809291908181526020016000905b8282101561134b57838290600052602060002090600202016040518060400160405290816000820160009054906101000a900473ffffffffffffffffffffffffffffffffffffffff1673ffffffffffffffffffffffffffffffffffffffff1673ffffffffffffffffffffffffffffffffffffffff168152602001600182015481525050815260200190600101906112b9565b505050509050809250505090565b6000821415801561136b575060005482105b6113aa576040517f08c379a00000000000000000000000000000000000000000000000000000000081526004016113a190612068565b60405180910390fd5b600073ffffffffffffffffffffffffffffffffffffffff166003600084815260200190815260200160002060009054906101000a900473ffffffffffffffffffffffffffffffffffffffff1673ffffffffffffffffffffffffffffffffffffffff16141561144d576040517f08c379a0000000000000000000000000000000000000000000000000000000008152600401611444906120fa565b60405180910390fd5b6000600460003373ffffffffffffffffffffffffffffffffffffffff1673ffffffffffffffffffffffffffffffffffffffff1681526020019081526020016000205414156114d0576040517f08c379a00000000000000000000000000000000000000000000000000000000081526004016114c790611f3a565b60405180910390fd5b60006003600084815260200190815260200160002060009054906101000a900473ffffffffffffffffffffffffffffffffffffffff169050600460003373ffffffffffffffffffffffffffffffffffffffff1673ffffffffffffffffffffffffffffffffffffffff1681526020019081526020016000205483141561158a576040517f08c379a0000000000000000000000000000000000000000000000000000000008152600401611581906123a6565b60405180910390fd5b600582106115cd576040517f08c379a00000000000000000000000000000000000000000000000000000000081526004016115c490612412565b60405180910390fd5b6115d56117b2565b33816000019073ffffffffffffffffffffffffffffffffffffffff16908173ffffffffffffffffffffffffffffffffffffffff1681525050828160200181815250506006600085815260200190815260200160002081908060018154018082558091505060019003906000526020600020906002020160009091909190915060008201518160000160006101000a81548173ffffffffffffffffffffffffffffffffffffffff021916908373ffffffffffffffffffffffffffffffffffffffff1602179055506020820151816001015550506001600760008473ffffffffffffffffffffffffffffffffffffffff1673ffffffffffffffffffffffffffffffffffffffff16815260200190815260200160002060008282546116f79190611fc6565b9250508190555050505050565b6040518060800160405280600081526020016000815260200160608152602001600081525090565b828054611738906121b5565b90600052602060002090601f01602090048101928261175a57600085556117a1565b82601f1061177357805160ff19168380011785556117a1565b828001600101855582156117a1579182015b828111156117a0578251825591602001919060010190611785565b5b5090506117ae91906117e2565b5090565b6040518060400160405280600073ffffffffffffffffffffffffffffffffffffffff168152602001600081525090565b5b808211156117fb5760008160009055506001016117e3565b5090565b6000819050919050565b611812816117ff565b82525050565b600060208201905061182d6000830184611809565b92915050565b6000604051905090565b600080fd5b600080fd5b600080fd5b600080fd5b6000601f19601f8301169050919050565b7f4e487b7100000000000000000000000000000000000000000000000000000000600052604160045260246000fd5b61189a82611851565b810181811067ffffffffffffffff821117156118b9576118b8611862565b5b80604052505050565b60006118cc611833565b90506118d88282611891565b919050565b600067ffffffffffffffff8211156118f8576118f7611862565b5b61190182611851565b9050602081019050919050565b82818337600083830152505050565b600061193061192b846118dd565b6118c2565b90508281526020810184848401111561194c5761194b61184c565b5b61195784828561190e565b509392505050565b600082601f83011261197457611973611847565b5b813561198484826020860161191d565b91505092915050565b611996816117ff565b81146119a157600080fd5b50565b6000813590506119b38161198d565b92915050565b600080604083850312156119d0576119cf61183d565b5b600083013567ffffffffffffffff8111156119ee576119ed611842565b5b6119fa8582860161195f565b9250506020611a0b858286016119a4565b9150509250929050565b60008060408385031215611a2c57611a2b61183d565b5b6000611a3a858286016119a4565b9250506020611a4b858286016119a4565b9150509250929050565b611a5e816117ff565b82525050565b600081519050919050565b600082825260208201905092915050565b60005b83811015611a9e578082015181840152602081019050611a83565b83811115611aad576000848401525b50505050565b6000611abe82611a64565b611ac88185611a6f565b9350611ad8818560208601611a80565b611ae181611851565b840191505092915050565b6000608083016000830151611b046000860182611a55565b506020830151611b176020860182611a55565b5060408301518482036040860152611b2f8282611ab3565b9150506060830151611b446060860182611a55565b508091505092915050565b60006020820190508181036000830152611b698184611aec565b905092915050565b600081519050919050565b600082825260208201905092915050565b6000819050602082019050919050565b6000608083016000830151611bb56000860182611a55565b506020830151611bc86020860182611a55565b5060408301518482036040860152611be08282611ab3565b9150506060830151611bf56060860182611a55565b508091505092915050565b6000611c0c8383611b9d565b905092915050565b6000602082019050919050565b6000611c2c82611b71565b611c368185611b7c565b935083602082028501611c4885611b8d565b8060005b85811015611c845784840389528151611c658582611c00565b9450611c7083611c14565b925060208a01995050600181019050611c4c565b50829750879550505050505092915050565b60006020820190508181036000830152611cb08184611c21565b905092915050565b600081519050919050565b600082825260208201905092915050565b6000819050602082019050919050565b600073ffffffffffffffffffffffffffffffffffffffff82169050919050565b6000611d0f82611ce4565b9050919050565b611d1f81611d04565b82525050565b604082016000820151611d3b6000850182611d16565b506020820151611d4e6020850182611a55565b50505050565b6000611d608383611d25565b60408301905092915050565b6000602082019050919050565b6000611d8482611cb8565b611d8e8185611cc3565b9350611d9983611cd4565b8060005b83811015611dca578151611db18882611d54565b9750611dbc83611d6c565b925050600181019050611d9d565b5085935050505092915050565b60006020820190508181036000830152611df18184611d79565b905092915050565b600082825260208201905092915050565b7f796f752061726520616c72656164792072656769737472656400000000000000600082015250565b6000611e40601983611df9565b9150611e4b82611e0a565b602082019050919050565b60006020820190508181036000830152611e6f81611e33565b9050919050565b7f4e487b7100000000000000000000000000000000000000000000000000000000600052601160045260246000fd5b6000611eb0826117ff565b91507fffffffffffffffffffffffffffffffffffffffffffffffffffffffffffffffff821415611ee357611ee2611e76565b5b600182019050919050565b7f796f75206d757374207265676973746572206669727374000000000000000000600082015250565b6000611f24601783611df9565b9150611f2f82611eee565b602082019050919050565b60006020820190508181036000830152611f5381611f17565b9050919050565b7f75736572206d7573742062652072656769737472656400000000000000000000600082015250565b6000611f90601683611df9565b9150611f9b82611f5a565b602082019050919050565b60006020820190508181036000830152611fbf81611f83565b9050919050565b6000611fd1826117ff565b9150611fdc836117ff565b9250827fffffffffffffffffffffffffffffffffffffffffffffffffffffffffffffffff0382111561201157612010611e76565b5b828201905092915050565b7f696e76616c696420757365722069640000000000000000000000000000000000600082015250565b6000612052600f83611df9565b915061205d8261201c565b602082019050919050565b6000602082019050818103600083015261208181612045565b9050919050565b7f75736572206973206e6f74207265676973747265642c20706c6561736520726560008201527f67697374657220796f7572206164647265737300000000000000000000000000602082015250565b60006120e4603383611df9565b91506120ef82612088565b604082019050919050565b60006020820190508181036000830152612113816120d7565b9050919050565b7f796f752063616e6e6f742075736520796f757220757365722069642100000000600082015250565b6000612150601c83611df9565b915061215b8261211a565b602082019050919050565b6000602082019050818103600083015261217f81612143565b9050919050565b7f4e487b7100000000000000000000000000000000000000000000000000000000600052602260045260246000fd5b600060028204905060018216806121cd57607f821691505b602082108114156121e1576121e0612186565b5b50919050565b7f796f752068617665206e6f2061737365747320746f2073686172650000000000600082015250565b600061221d601b83611df9565b9150612228826121e7565b602082019050919050565b6000602082019050818103600083015261224c81612210565b9050919050565b7f4e487b7100000000000000000000000000000000000000000000000000000000600052603260045260246000fd5b61228b81611d04565b82525050565b60006060820190506122a66000830186612282565b6122b36020830185612282565b6122c06040830184611809565b949350505050565b7f796f752068617665206e6f2061737365747320746f2072656164000000000000600082015250565b60006122fe601a83611df9565b9150612309826122c8565b602082019050919050565b6000602082019050818103600083015261232d816122f1565b9050919050565b7f796f752063616e6e6e6f74207265717565737420796f7572206f776e2061737360008201527f6574210000000000000000000000000000000000000000000000000000000000602082015250565b6000612390602383611df9565b915061239b82612334565b604082019050919050565b600060208201905081810360008301526123bf81612383565b9050919050565b7f61737365742074797065206d757374206265206265747765656e2031202d2034600082015250565b60006123fc602083611df9565b9150612407826123c6565b602082019050919050565b6000602082019050818103600083015261242b816123ef565b905091905056fea2646970667358221220de4f4339b50ef0ec59b1aafe828d18434e90c9aa50a788ebdabd87b3707f414a64736f6c634300080a0033",
  "immutableReferences": {},
  "source": "// SPDX-License-Identifier: GPL-3.0\n\npragma solidity >=0.7.0 <0.9.0;\n\n/**\n * Natnael Teshome\n * Vshare \n */\n //V\n \n\n /*struct for assets*/        \n    struct Asset{\n        uint256 Atype;\n        uint256 asset_id;\n        string hash;\n        uint256 userId;\n    }\n/*struct for requests used in requestes of assets*/    \n    struct Request{\n        \n        address Requester;\n        uint RequestedDataType;\n    }\n\n contract Vshare{\n     \n     uint256 userCount; //keeps count of total Users\n     uint256 totalAssetsCount; //keeps count of total assets added\n     uint256 totalShares; //keeps track of total shares and allows\n     \n     mapping (uint256 => address) users; //holds user id for registration purposes\n     mapping (address => uint256) reverseId; //gives me ability to find id by address\n     mapping (address => Asset[]) assets_owned;\n     //mapping (address => string[]) assets_owned; //maps user to string array\n     mapping (uint256 => Request[]) requests; //maps user ids to request array\n     mapping (address => uint256) requestCount; //counts how many requets a user has\n     mapping (address => uint256) assetCount; //counts how many assets a user has\n     \n    //constructor initiates some thangs     \n     constructor() {\n        userCount = 1;\n        totalAssetsCount = 0;\n        totalShares = 0;\n    }\n    \n    //returns request count\n    function GetRequestCount() public view returns(uint256){\n        require(reverseId[msg.sender] != 0, \"you must register first\");\n        return requestCount[msg.sender];\n    \n    }\n    //returns asset count\n    function GetAssetCount() public view returns(uint256){\n        require(reverseId[msg.sender] != 0, \"you must register first\");\n        return assetCount[msg.sender];\n    }\n    \n    //returns total user count\n    function GetUserCount() private view returns(uint256){\n        require(reverseId[msg.sender] != 0, \"you must register first\");\n        return userCount-1;\n    }\n    //returns registred users' id\n    function GetUserId() public view returns (uint256){\n        \n        require(reverseId[msg.sender] != 0, \"you must register first\");\n        return reverseId[msg.sender];\n\t}\n\t\n    //users can register\n    function RegisterUser() public {\n        require(reverseId[msg.sender] == 0, \"you are already registred\");\n        users[userCount] = msg.sender;\n\t    reverseId[msg.sender] = userCount;\n\t    userCount++;\n\t}\n\t\n\t//list the requets that you have\n\tfunction ListRequests() public view returns(Request[] memory) {\n        \n            if(reverseId[msg.sender] == 0){\n            revert(\"user must be registred\");\n            }\n            uint256 userid = reverseId[msg.sender];\n            Request[] memory reqs = requests[userid];\n\n\t        return reqs;\n        }\n       //function for adding assets, uses strings for now\n\t    function AddAsset(string memory hash, uint256 Atype) public{\n\t        Asset memory newAsset;\n\t        newAsset.asset_id = assetCount[msg.sender];\n\t        newAsset.hash = hash;\n\t        newAsset.userId = reverseId[msg.sender];\n\t        newAsset.Atype = Atype;\n\t        if(reverseId[msg.sender] == 0){\n            revert(\"user must be registred\");\n            }\n\t        \n\t        assets_owned[msg.sender].push(newAsset);\n\t        //Asset[] memory T = assets_owned[msg.sender];\n            assetCount[msg.sender] += 1;\n            totalAssetsCount++;\n\t    }\n\t    /*function to allow registred users to request asset \n\t    from another using some identification value for the asset*/\n         function RequestAsset(uint256 userId, uint256 asset_type) public {\n             \n            require(userId != 0 && userId < userCount, (\"invalid user id\"));\n        \trequire(users[userId]!= address(0), (\"user is not registred, please register your address\"));\n\t        require(reverseId[msg.sender] != 0, \"you must register first\");\n\t        address RequestAddress = users[userId];\n\t        require(userId != reverseId[msg.sender], (\"you cannnot request your own asset!\"));\n\t        require(asset_type < 5, \"asset type must be between 1 - 4\");\n\t        Request memory req;\n\t       \n\t        req.Requester = msg.sender;\n\t        req.RequestedDataType = asset_type;\n\t        requests[userId].push(req);\n\t        requestCount[RequestAddress] += 1;\n        }\n\n   //event that emits when an asset is shared \n   event assetShared(address from, address to, uint256 asset_type);\n/*\nfunction that gives access to specific asset type to other users\n*/\n   function AllowAccess(uint256 assetid, uint256 userId) public { //assetid\n\trequire(userId != 0 && userId < userCount, (\"invalid user id\"));\n\trequire(users[userId]!= address(0), (\"user is not registred, please register your address\"));\n\trequire(reverseId[msg.sender] != 0, \"you must register first\");\n\trequire(userId != reverseId[msg.sender], (\"you cannot use your user id!\"));\n\taddress AllowAddress = users[userId];\n\tAsset[] memory assets = assets_owned[msg.sender];\n\tif(assets.length == 0){\n\t    revert(\"you have no assets to share\");\n\t}\n    //send first asset but later we will have a condition on which lets user select specific \n    for (uint i = 0; i<assets.length; i++){\n        if(assets[i].asset_id == assetid){\n            assets_owned[AllowAddress].push(assets[i]);\n            totalShares++;\n            assetCount[AllowAddress] += 1;\n            emit assetShared(msg.sender, AllowAddress, assetid);\n            }\n    }\n\t\n    }//allow\n   /*\n   function that returns all assets in an array\n   I */ \n    function ListAssets() public view returns(Asset[] memory){\n\t    require(reverseId[msg.sender] != 0, \"you must register first\");\n        Asset[] memory Assets = assets_owned[msg.sender];\n\n        return Assets;\n    }\n    \n    /*\n    function that allows users read assets based on asset type\n    which is not being used in version 1\n    */\n    function ReadAsset(uint256 ownerid, uint256 asset_id) public view returns(Asset memory h){\n\trequire(reverseId[msg.sender] != 0, \"you must register first\");\n\trequire(ownerid != 0 && ownerid <= userCount);\n\t//address assets_Owner_address = users[ownerid];\n\tAsset[] memory assets = assets_owned[msg.sender] ;\n\trequire(assets.length != 0, (\"you have no assets to read\"));\n\t//emit Asset_Read(msg.sender, assets_Owner_address , asset_type);\n\tfor (uint i = 0; i<assets.length; i++){\n        if(assets[i].userId == ownerid && assets[i].asset_id == asset_id){\n            return assets[i];\n            }//if\n    }//for\n\t\n\n    }\n }\n ",
  "sourcePath": "/Users/natnael/Desktop/fall2021classes/blockchain/Ipfs_Eth/contracts/Vshare.sol",
  "compiler": {
    "name": "solc",
    "version": "0.8.10+commit.fc410830.Emscripten.clang"
  },
  "schemaVersion": "3.4.3",
  "updatedAt": "2021-12-28T11:05:25.328Z",
  "networkType": "ethereum",
  "devdoc": {
    "kind": "dev",
    "methods": {},
    "version": 1
  },
  "userdoc": {
    "kind": "user",
    "methods": {},
    "version": 1
  }
}